:020000040000FA
:04000000F2EF00F02B
:020004000000FA
:020006001000E8
:040008002AEF01F0EA
:0400180003EF00F002
:04001C008194085073
:100020002009036E23EC01F00750036E23EC01F06E
:10003000818412008194E10E036E23EC01F081842F
:100040001200819408502009036E23EC01F009503E
:10005000036E23EC01F00A50036E23EC01F00B5009
:10006000036E23EC01F00C50036E23EC01F00D50F5
:10007000036E23EC01F08184120081940850200962
:10008000036E23EC01F00A50036E23EC01F00950DB
:10009000036E23EC01F0818412001AEC00F0A051F1
:1000A000086E3DEC00F0700E076E0750086E0EEC07
:1000B00000F0020E076E0050086E0EEC00F0818614
:1000C000EAEC00F0819612001AEC00F0700E076E58
:1000D0000750086E0EEC00F0020E076E0050086E1E
:1000E0000EEC00F01200819408502009036E23ECFE
:1000F00001F01CEC01F081841200939493968184AA
:100100008196DAEC00F0020E076E000E086E0EEC1F
:1001100000F0E2EC00F0000E076E010E086E0EEC2F
:1001200000F0000E076E020E086E0EEC00F0030EDB
:10013000076E030E086E0EEC00F0000E076E040E44
:10014000086E0EEC00F0400E076E050E086E0EEC09
:1001500000F0260E076E060E086E0EEC00F00A0E7A
:10016000086E050E096E040E0A6E030E0B6E020E6B
:100170000C6E010E0D6E21EC00F0100E086E21ECDD
:1001800000F0000E076E110E086E0EEC00F012006B
:10019000D56AD59CD59AD596D584D592D59012009E
:1001A000D5BEFED71200D59E05C0D6FF06C0D7FF2C
:1001B000D58E1200E70E066E950E056ED3EC00F09C
:1001C000D0EF00F0FD0E066E8E0E056ED3EC00F043
:1001D000D0EF00F0FF0E066EC00E056ED3EC00F0FF
:0401E000D0EF00F06C
:0C01E400720ED36E0E0EC16EC26AB90E10
:1001F000C06EC2809E6AF26A9D6AF28EF28AC8EC74
:1002000000F010EC01F07DEC00F0C2829EACFED755
:100210009E9CC4CF09F0C3CF0AF04DEC00F0F5D797
:100220009380949E9392929AC00EC76E200EC66ED3
:100230001200DF0EC6161200000EC96EC7A0FED750
:10024000C950046E12009E96C95003C0C9FFC7A0D2
:04025000FED71200C3
:0C025400006ED8CF01F0E0CF02F0F2A461
:1002600002D0F294D59E005001C0D8FF02C0E0FF3A
:0202700010007C
:020000040030CA
:0100000003FC
:0100010048B6
:0100020018E5
:010003001EDE
:010005008179
:010006008178
:010008000FE8
:01000900C036
:01000A000FE6
:01000B00E014
:01000C000FE4
:01000D0040B2
:00000001FF
